:100000000C942A000C9447000C9447000C94470071
:100010000C9447000C9447000C9447000C94470044
:100020000C9447000C9447000C9447000C94470034
:100030000C9447000C9447000C9447000C94470024
:100040000C9447000C9447000C9447000C94470014
:100050000C94470011241FBECFE5D8E0DEBFCDBF12
:1000600010E0A0E6B0E0E6EBF6E002C005900D92ED
:10007000AA36B107D9F720E0AAE6B0E001C01D9288
:10008000AB36B207E1F70E945B000C9459030C9465
:1000900000000E9454000895E62FF0E0E05AFF4F60
:1000A00060810E945800089561E00E945C010895FB
:1000B0000E940002089581E00E94490040E060E053
:1000C00083E00E94780141E060E083E00E94D50275
:1000D00040E061E083E00E94780141E061E083E07C
:1000E0000E94D50240E062E083E00E94780141E096
:1000F00062E083E00E94D50241E067E082E00E9476
:10010000780141E066E082E00E94780141E065E02C
:1001100082E00E94780141E064E082E00E94780180
:1001200040E067E082E00E941C0240E066E082E07E
:100130000E941C0240E065E082E00E941C0240E058
:1001400064E082E00E941C02F12C10E000E0D0E0AC
:10015000CDE760E083E00E94A002811104C081E04D
:1001600080936A0015C061E083E00E94A0028111C3
:1001700003C010926A000CC062E083E00E94A002FB
:10018000811106C010926A00F12C10E000E0D0E06E
:1001900041E067E082E00E941C0240E066E082E00D
:1001A0000E941C0240E065E082E00E941C0240E0E8
:1001B00064E082E00E941C026D2F81E00E944C00EE
:1001C0008FE99FE00197F1F700C0000040E067E091
:1001D00082E00E941C0241E066E082E00E941C0274
:1001E00040E065E082E00E941C0240E064E082E0C2
:1001F0000E941C02602F81E00E944C008FE99FE06A
:100200000197F1F700C0000040E067E082E00E9443
:100210001C0240E066E082E00E941C0241E065E0D2
:1002200082E00E941C0240E064E082E00E941C0226
:10023000612F81E00E944C008FE99FE00197F1F768
:1002400000C0000040E067E082E00E941C0240E045
:1002500066E082E00E941C0240E065E082E00E94CD
:100260001C0241E064E082E00E941C026F2D81E0EC
:100270000E944C008FE99FE00197F1F700C0000059
:10028000C15009F066CF80916A00813009F060CFDB
:10029000DF5FDA3011F40F5FD0E0063019F41F5F32
:1002A00000E0D0E01A3011F4F39410E096E0F91277
:1002B0004FCFF12C10E04CCF613009F46FEF82305A
:1002C00061F018F4813031F011C0833049F084308E
:1002D00051F00CC06ABB80E0089567BB80E00895D0
:1002E00064BB80E0089561BB80E0089581E00895DB
:1002F000683008F07FC0423008F07EC0823031F1B3
:1003000018F4813039F07AC08330E1F1843009F497
:1003100055C074C041110DC09AB321E030E002C055
:10032000220F331F6A95E2F7822F809589238ABBBB
:100330000AC02AB381E090E002C0880F991F6A9535
:10034000E2F7822B8ABB8ABB80E0089541110DC081
:1003500097B321E030E002C0220F331F6A95E2F725
:10036000822F8095892387BB0AC027B381E090E064
:1003700002C0880F991F6A95E2F7822B87BB87BB63
:1003800080E0089541110DC094B321E030E002C037
:10039000220F331F6A95E2F7822F8095892384BB51
:1003A0000AC024B381E090E002C0880F991F6A95CB
:1003B000E2F7822B84BB84BB80E0089541110DC01D
:1003C00091B321E030E002C0220F331F6A95E2F7BB
:1003D000822F8095892381BB0AC021B381E090E000
:1003E00002C0880F991F6A95E2F7822B81BB81BBFF
:1003F00080E0089582E0089583E0089581E0089503
:10040000613009F46FEF823061F018F4813031F01F
:1004100011C0833049F0843051F00CC06BBB80E0D8
:10042000089568BB80E0089565BB80E0089562BBD5
:1004300080E0089581E00895683008F07BC0423084
:1004400008F07AC0823029F118F4813039F076C092
:100450008330D1F1843009F452C070C041110DC015
:100460002BB381E090E002C0880F991F6A95E2F7F4
:10047000809582238BBB80E008952BB381E090E0D0
:1004800002C0880F991F6A95E2F7822B8BBB80E030
:10049000089541110DC028B381E090E002C0880F9B
:1004A000991F6A95E2F78095822388BB80E00895C2
:1004B00028B381E090E002C0880F991F6A95E2F7A7
:1004C000822B88BB80E0089541110DC025B381E0E7
:1004D00090E002C0880F991F6A95E2F78095822309
:1004E00085BB80E0089525B381E090E002C0880FCD
:1004F000991F6A95E2F7822B85BB80E00895411130
:100500000DC022B381E090E002C0880F991F6A9568
:10051000E2F78095822382BB80E0089522B381E0D8
:1005200090E002C0880F991F6A95E2F7822B82BB88
:1005300080E0089582E0089583E0089581E00895C1
:10054000683078F5823091F018F4813031F02BC0AA
:100550008330A9F08430E1F026C089B390E002C076
:10056000959587956A95E2F78170089586B390E036
:1005700002C0959587956A95E2F78170089583B3D7
:1005800090E002C0959587956A95E2F7817008958D
:1005900080B390E002C0959587956A95E2F78170E7
:1005A000089583E0089582E00895423008F07BC00A
:1005B000683008F07AC0823029F118F4813039F0BF
:1005C00076C08330D1F1843009F452C070C041113B
:1005D0000DC02BB381E090E002C0880F991F6A958F
:1005E000E2F7809582238BBB80E008952BB381E0F6
:1005F00090E002C0880F991F6A95E2F7822B8BBBAF
:1006000080E0089541110DC028B381E090E002C060
:10061000880F991F6A95E2F78095822388BB80E056
:10062000089528B381E090E002C0880F991F6A9571
:10063000E2F7822B88BB80E0089541110DC025B3FD
:1006400081E090E002C0880F991F6A95E2F78095DB
:10065000822385BB80E0089525B381E090E002C04D
:10066000880F991F6A95E2F7822B85BB80E0089579
:1006700041110DC022B381E090E002C0880F991FA4
:100680006A95E2F78095822382BB80E0089522B3C9
:1006900081E090E002C0880F991F6A95E2F7822BF3
:1006A00082BB80E0089583E0089582E0089581E0B0
:0606B0000895F894FFCF4D
:0A06B600C0F9A4B0999282F8809078
:00000001FF
